:100000000C94B0060C94D8060C94D8060C94D80620
:100010000C94D8060C94D8060C94D8060C9407229D
:100020000C94D8060C94D8060C94D8060C94D806D8
:100030000C94D8060C94D8060C94D8060C94D806C8
:100040000C94BB220C94D8060C9489220C94632245
:100050000C94D8060C94D8060C94D8060C94D806A8
:100060000C9405230C94D80600000000000000004A
:1000700007FFFFFFF000000FFFFFFFF800001FFF6A
:10008000FFFFFC00007FFFFF807E00007BFFFF8002
:100090005F0000F30001804F0000E3FFFF80470096
:1000A00000E3000180470000E3000180470000E317
:1000B000FFFF8047007FE3FFFF8047007FE30001F1
:1000C000804700FFE30001804700F023FFFF8047E7
:1000D00000FFE3FFFF804700FFE300018047007F50
:1000E000E3000180470000E3FFFF80470000E3FFDB
:1000F000FF80470000E3000180470000E3FFFF802E
:10010000470000F3FFFF80470000FB0001804F0025
:10011000007FFFFF805E00003FFFFF80FC00001FAC
:10012000FFFFFFF800000FFFFFFFF0000003FFFFDD
:10013000FFE00000000000000000000000000000E0
:1001400000000000003FF00000000000003FF00051
:1001500000000000003FF00000000000003FF00041
:1001600000000000003FF00000000000003FF00031
:100170000000000C003FF0003000001E003FF000C7
:100180007800003F00FFFE00FC00007F87FFFEE1DB
:10019000FE0000FFDFFFFF7BFF0001FFFFFFFF3FCF
:1001A000FF8003FFFFFFFF9FFFC001FFFFFFFFDF97
:1001B000FF8000FFFFFEFFCFFF00007FFFC007EFC3
:1001C000FE00003FFE0001E7FC00001FFC0000777E
:1001D000F800001FF8000033F800001FE0000013D3
:1001E000F800003FE000000BFC00007FC3E03E0190
:1001F000FE00007F83F83F85FE00007F8318318179
:10020000FE0000FF03183183FF0000FF03F83F806A
:10021000FF00FFFE03E03E00FFFFFFFE0330330060
:10022000FFFFFFFE03183180FFFFFFFE031831C000
:10023000FFFFFFFE00000000FFFFFFFE00000000C8
:10024000FFFFFFFE00000000FFFFFFFE00000000B8
:10025000FFFFFFFE80000000FFFFFFFE8007E000C1
:10026000FFFF00FE8007F000FF0000FF40073001A5
:10027000FF00007F40073001FE00007FA007F00173
:10028000FE00007FB007E001FE00003FD807600BD2
:10029000FC00003FEC073003FC00001FF6073013A2
:1002A000F800001FFB820077F800003FFDF008F720
:1002B000FC00007FFF3FC3EFFE0000FFFFE00FEFF9
:1002C000FF0001FFFFFFFFDFFF8003FFFFFFFFDFF6
:1002D000FFC003FFFFFFFFBFFFC001FFFFFFFF7F66
:1002E000FF8000FF8FFFFFF9FF00007F03FFFCC0CE
:1002F000FE00003E007FF8007C00001C003FF00084
:1003000038000008003FF00010000000003FF0003F
:1003100000000000003FF00000000000003FF0007F
:1003200000000000003FF00000000000003FF0006F
:1003300000000000003FF000000000000000003E50
:100340005B4F5B3E3E6B4F6B3E1C3E7C3E1C183C45
:100350007E3C181C577D571C1C5E7F5E1C00183CA1
:100360001800FFE7C3E7FF0018241800FFE7DBE7EA
:10037000FF30483A060E2629792926407F050507D1
:10038000407F05253F5A3CE73C5A7F3E1C1C08082D
:100390001C1C3E7F14227F22145F5F005F5F0609F2
:1003A0007F017F006689956A606060606094A2FF4B
:1003B000A29408047E040810207E201008082A1C3D
:1003C00008081C2A08081E101010100C1E0C1E0C09
:1003D00030383E3830060E3E0E06000000000000A9
:1003E000005F00000007000700147F147F14242A18
:1003F0007F2A1223130864623649562050000807EA
:100400000300001C2241000041221C002A1C7F1C0A
:100410002A08083E0808008070300008080808080C
:10042000000060600020100804023E5149453E0073
:10043000427F400072494949462141494D331814D1
:10044000127F1027454545393C4A49493141211120
:1004500009073649494936464949291E0000140012
:100460000000403400000008142241141414141435
:10047000004122140802015909063E415D594E7C93
:100480001211127C7F494949363E414141227F4148
:1004900041413E7F494949417F090909013E4141A6
:1004A00051737F0808087F00417F41002040413F91
:1004B000017F081422417F404040407F021C027FA0
:1004C0007F0408107F3E4141413E7F090909063EF5
:1004D0004151215E7F0919294626494949320301C4
:1004E0007F01033F4040403F1F2040201F3F4038D6
:1004F000403F631408146303047804036159494DB1
:1005000043007F4141410204081020004141417FE6
:10051000040201020440404040400003070800205C
:10052000545478407F28444438384444442838445C
:1005300044287F385454541800087E090218A4A493
:100540009C787F0804047800447D40002040403DB2
:10055000007F1028440000417F40007C047804782C
:100560007C080404783844444438FC1824241818BF
:10057000242418FC7C08040408485454542404041B
:100580003F44243C4040207C1C2040201C3C403008
:10059000403C44281028444C9090907C4464544C37
:1005A0004400083641000000770000004136080092
:1005B00002010204023C2623263C1EA1A161123A3C
:1005C0004040207A38545455592155557941225488
:1005D000547842215554784020545579400C1E528D
:1005E0007212395555555939545454593955545432
:1005F000580000457C410002457D420001457C4099
:100600007D1211127DF0282528F07C5455450020DC
:1006100054547C547C0A097F4932494949323A444E
:1006200044443A324A4848303A4141217A3A4240B9
:100630002078009DA0A07D3D4242423D3D4040408B
:100640003D3C24FF2424487E4943662B2FFC2F2B5E
:10065000FF0929F620C0887E0903205454794100FF
:1006600000447D413048484A32384040227A007A7E
:100670000A0A727D0D19317D2629292F282629295C
:10068000292630484D40203808080808080808087E
:10069000382F10C8ACBA2F102834FA00007B0000A5
:1006A00008142A142222142A14085500550055AAA9
:1006B00055AA55AAFF55FF55FF000000FF00101076
:1006C00010FF00141414FF001010FF00FF1010F0B2
:1006D00010F0141414FC001414F700FF0000FF00C5
:1006E000FF1414F404FC141417101F10101F101F13
:1006F0001414141F00101010F0000000001F101040
:1007000010101F10101010F010000000FF1010103B
:10071000101010101010FF10000000FF140000FF58
:1007200000FF00001F10170000FC04F41414171041
:10073000171414F404F40000FF00F7141414141434
:100740001414F700F7141414171410101F101F14AA
:100750001414F4141010F010F000001F101F00000B
:10076000001F14000000FC140000F010F01010FF37
:1007700010FF141414FF141010101F00000000F0DC
:1007800010FFFFFFFFFFF0F0F0F0F0FFFFFF0000B1
:10079000000000FFFF0F0F0F0F0F3844443844FCD8
:1007A0004A4A4A347E02020606027E027E026355EF
:1007B0004941633844443C04407E201E2006027EAA
:1007C000020299A5E7A5991C2A492A1C4C720172BC
:1007D0004C304A4D4D303048784830BC625A463D26
:1007E0003E494949007E0101017E2A2A2A2A2A44DB
:1007F000445F444440514A444040444A5140000010
:10080000FF0103E080FF000008086B6B083612361A
:100810002436060F090F06000018180000001010FB
:10082000003040FF0101001F01011E00191D1712B9
:10083000003C3C3C3C0000000000000103070F1F8F
:100840003F7F0080C0E0F0F8FCFE000000002300C5
:100850002600290000000008000201000003040730
:10086000000000000000000000000000240027003D
:100870002A00DB40A4A62EAF2000A1C8D300408DE3
:10088000AED580A80000600000000000000000005D
:100890000000000000E00000000000000000000078
:1008A00000000001E0000000000000000000000067
:1008B000000001F000000000000000000000000047
:1008C0000003F00000000000000000000000000035
:1008D00007F000000000000000000000000000071A
:1008E000F8000000000000000000000000000FF809
:1008F00000000003C0007E000001E0007F0FF80050
:10090000000003C000FE000001E000FFEFF800005F
:100910000003C000FE000001E000FFFFF80000003F
:1009200003C000F00000000F007FFE7FC000000346
:10093000C000F00000000F003FFE7FF83FF1FBCF4A
:10094000FCFEF3BC3DEFE01FFE7FFF7FFBFFDFFE01
:10095000FEFFBC3DEFE01FC6FFFF7FFBFFDFFEFE9B
:10096000FFBC3DEFE00FE3C7FE787BC3DE1EF0FF68
:10097000BC3DEF0007FF87FC787BC3DE1EF0F83C30
:100980003DEF0001FFFFF0007BC3C01EF0F03C3DD7
:10099000EF0001F37FE03FFBC3CFFEF0F03C3DEF03
:1009A0000003E33F807FFBC3DFFEF0F03C3DEF0040
:1009B00007E73C00787BC3DE1EF0F03C3DEF00070C
:1009C000FFBE00787BC3DE1EF0F03C3DEF0007FF6A
:1009D000FE00787BC3DE1EF0F03C3DEF000FFFFE13
:1009E000007FFBFFDFFEF0F03FFDEFE00FFFFF00B9
:1009F0007FFBFFDFFEF0F03FFDEFE00FF9FF003E71
:100A000079F9CF9EF0F01F3DE7E01FF1FF000000F5
:100A10000000000000000000001F80FF007FFFFFBB
:100A2000FFFFFFFFFFFFFFE01C007F007FFFFFFFD6
:100A3000FEB46D888D18E000001F007FFFFFFFFEF1
:100A400095AD7DB577E000000F007FFFFFFFFEA5AD
:100A5000AD9D8D19E0000006007FFFFFFFFEB5ADE4
:100A6000EDB57EE000000000000180000000000005
:100A700000000000038000000000000000000007EC
:100A8000C000000000000000000007C000000000DF
:100A900000000000000FC000000000000000000087
:100AA0001FE00000000000000000001FE000000048
:100AB0000000000000003FE0000000000000000017
:100AC000003FF00000000000000000007FF0000088
:100AD00000000000001FF87FF00000000000000090
:100AE0003FFE7FF0000000000000003FFF7FF000AD
:100AF0000000000000001FFFFBE0000000000000FD
:100B0000000FFFF9FFC00000000000000FFFF9FF19
:100B1000F800000000000007FFF1FFFF00000000E8
:100B2000000003FC73FFFF80000000000001FE3F97
:100B3000FFFF80000000000000FF1E0FFF0000000C
:100B4000000000007FFE1FFC000000000000003FCE
:100B5000FFFFF8000000000000000FDFFFE00000D2
:100B600000000000001F19FFC0000000000000008E
:100B70003F3CFF00000000000000007E7CF8000009
:100B80000000000000007FFE7C000000000000006C
:100B900000FFFFFC0000000000000000FFFFFE005F
:100BA00000000000000000FFFFFE00000000000049
:100BB0000001FFEFFE0000000000000001FFCFFE7B
:100BC0000000000000000003FF07FE00000000001E
:100BD000000003FC07FE0000000000000003F0031B
:100BE000FE00000000000000018000FE0000000088
:100BF0000000000000007E00000000000000000077
:100C0000003E000000000000000000000C0000009A
:100C1000000000078000FC000003C0000000078007
:100C200001FC000003C0000000078001FC0000037D
:100C3000C0000000078001E00000001E0000000767
:100C40008001E00000001E007FE3F79FF9FDE778D8
:100C50007BDFC0FFF7FFBFFDFDFF787BDFC0FFF745
:100C6000FFBFFDFDFF787BDFC0F0F787BC3DE1FFF4
:100C7000787BDE00F0F787BC3DE1F0787BDE00009A
:100C8000F787803DE1E0787BDE007FF7879FFDE11D
:100C9000E0787BDE00FFF787BFFDE1E0787BDE00D8
:100CA000F0F787BC3DE1E0787BDE00F0F787BC3DE4
:100CB000E1E0787BDE00F0F787BC3DE1E0787BDEA9
:100CC00000FFF7FFBFFDE1E07FFBDFC0FFF7FFBFE5
:100CD000FDE1E07FFBDFC07CF3F39F3DE1E03E7B85
:100CE000CFC00000000000000000000000FFFFFF78
:100CF000FFFFFFFFFFFFFFC0FFFFFFFFFD68DB11EE
:100D00001A31C0FFFFFFFFFD2B5AFB6AEFC0FFFF48
:100D1000FFFFFD4B5B3B1A33C0FFFFFFFFFD6B5B2B
:100D2000DB6AFDC0010204081020408001020408B3
:100D300010200102040810200000000025002800F7
:100D40002B0004040404040404040202020202024C
:100D5000030303030303022200FF2100242435328E
:100D600011241FBECFEFD8E0DEBFCDBF11E0A0E061
:100D7000B1E0E2EEFBE602C005900D92AE3CB10799
:100D8000D9F724E0AEECB1E001C01D92A131B20769
:100D9000E1F716E0CFEAD6E004C02197FE010E94F9
:100DA000AD34CE3AD107C9F70E94A7240C94E4359C
:100DB0000C94000091E090932303809322031092FF
:100DC0002103109220030895089508950895AF9285
:100DD000BF92CF92DF92EF92FF920F931F93CF9328
:100DE000DF936C017B018B01040F151FEB015E018A
:100DF000AE18BF08C017D10759F06991D601ED911F
:100E0000FC910190F081E02DC6010995892B79F7BD
:100E1000C501DF91CF911F910F91FF90EF90DF906F
:100E2000CF90BF90AF900895FC01538D448D252F36
:100E300030E0842F90E0821B930B541710F0CF9674
:100E4000089501970895FC01918D828D981761F0A6
:100E5000A28DAE0FBF2FB11D5D968C91928D9F5FBD
:100E60009F73928F90E008958FEF9FEF0895FC019C
:100E7000918D828D981731F0828DE80FF11D858D4F
:100E800090E008958FEF9FEF0895FC01918D228DE2
:100E9000892F90E0805C9F4F821B91098F73992767
:100EA000089584E293E00E94450721E0892B09F42C
:100EB00020E0822F089580E090E0892B29F00E94A5
:100EC000510781110C9400000895FC01A48DA80F16
:100ED000B92FB11DA35ABF4F2C91848D90E001967C
:100EE0008F739927848FA689B7892C93A089B1899C
:100EF0008C91837080648C93938D848D981306C03D
:100F00000288F389E02D80818F7D80830895EF92A0
:100F1000FF920F931F93CF93DF93EC0181E0888FB3
:100F20009B8D8C8D98131AC0E889F989808185FF83
:100F300015C09FB7F894EE89FF896083E889F98925
:100F400080818370806480839FBF81E090E0DF9127
:100F5000CF911F910F91FF90EF900895F62E0B8D7A
:100F600010E00F5F1F4F0F731127E02E8C8D8E1135
:100F70000CC00FB607FCFACFE889F989808185FF9C
:100F8000F5CFCE010E946507F1CFEB8DEC0FFD2F61
:100F9000F11DE35AFF4FF0829FB7F8940B8FEA8957
:100FA000FB8980818062CFCFCF93DF93EC01888D66
:100FB0008823B9F0AA89BB89E889F9898C9185FDD4
:100FC00003C0808186FD0DC00FB607FCF7CF8C9162
:100FD00085FFF2CF808185FFEDCFCE010E946507AE
:100FE000E9CFDF91CF910895833081F028F48130EB
:100FF00099F08230A9F008958730A9F08830C9F0BF
:101000008430B1F4809180008F7D03C08091800096
:101010008F7780938000089584B58F7784BD08957D
:1010200084B58F7DFBCF8091B0008F778093B00027
:1010300008958091B0008F7DF9CFCF93DF93282F53
:1010400030E0F901EC5AF74F8491F901EC5DF24F71
:10105000D491F901EE5BF24FC491CC23A1F0811140
:101060000E94F407EC2FF0E0EE0FFF1FE65BF74F56
:10107000A591B491EC91ED2381E090E009F480E03A
:10108000DF91CF91089580E090E0FACF1F93CF9346
:10109000DF93282F30E0F901EC5AF74F8491F901E2
:1010A000EC5DF24FD491F901EE5BF24FC491CC2389
:1010B000A9F0162F81110E94F407EC2FF0E0EE0F3B
:1010C000FF1FE85CF24FA591B4918FB7F894EC91B3
:1010D000111108C0D095DE23DC938FBFDF91CF9133
:1010E0001F910895DE2BF8CF9091000189130BC05A
:1010F000E6E5FDE0E4919FEF90930001E13049F0D7
:1011000028F0E23061F060E00C94460810926E0026
:10111000FACF90916F009D7F90936F00F4CF9091E4
:1011200070009D7F9093700091E09093B00090913B
:10113000B100987F94609093B1001092B300E3CF18
:10114000CF93DF9390E0FC01EC5DF24F24918E5B36
:10115000924FFC0184918823C9F090E0880F991F79
:10116000FC01E859F74FA591B491FC01E85CF24FFE
:10117000C591D49161110DC09FB7F8948C912095C1
:1011800082238C938881282328839FBFDF91CF916E
:101190000895623051F49FB7F8943C91822F809566
:1011A00083238C93E8812E2BEFCF8FB7F894EC91AB
:1011B0002E2B2C938FBFEACF8F929F92AF92BF922C
:1011C000CF92DF92EF92FF92CF936C01809100015A
:1011D0008B3069F08F3F09F470C0CF91FF90EF9092
:1011E000DF90CF90BF90AF909F908F900895E6E5ED
:1011F000FDE0C491C7FDF1CF61E08BE00E94A00843
:10120000CC2319F0C23009F022C1F12CE12C60E0AE
:1012100072E18AE790E0A70196010E948E344901AD
:101220005A01DA01C9010197A109B1098F3F91055E
:10123000A105B10509F00CF4EEC060E472E48FE0A2
:1012400090E0A70196010E948E3421503109410996
:101250005109C23009F0A0C082E02F3F310541059D
:10126000510509F00CF488C160E970ED83E090E06D
:10127000A70196010E948E3421503109410951097C
:1012800083E02F3F31054105510509F00CF474C18D
:1012900068E478EE81E090E0A70196010E948E3428
:1012A00021503109410951092F3F310541055105AF
:1012B00011F00CF08FC084E05FC18BE080930001DF
:1012C000E6E5FDE0C491CF3F09F487CFC13021F1BD
:1012D00050F0C23009F43EC0C7FD7FCF61E08BE023
:1012E0000E94A0088FCF14BC15BC84B5826084BD59
:1012F00085B5816085BDEDE4FDE0E491F0E0EE0FA1
:10130000FF1FE85CF24F85919491EFE2FDE0E491DC
:10131000E093C502C0E070CF10928000109281006F
:10132000809181008860809381008091810081603C
:1013300080938100EDE4FDE0E491F0E0EE0FFF1F0B
:10134000E85CF24F85919491EFE2FDE0E491E09347
:10135000C40252CF1092B0001092B1008091B00040
:1013600082608093B0008091B10081608093B10071
:10137000EDE4FDE0E491F0E0EE0FFF1FE85CF24FDA
:10138000859194919093C3028093C202EFE2FDE0B5
:10139000E491E093C10230CF2F3F31054105510563
:1013A00009F00CF452C068E478EE81E090E0A70107
:1013B00096010E948E342150310941095109CC23F4
:1013C00009F4AFC02F3F31054105510511F00CF074
:1013D000B0C071CF64E274EF80E090E0A7019601A5
:1013E0000E948E34215031094109510985E02F3F77
:1013F00031054105510509F008F4BEC062E17AE704
:1014000080E090E0A70196010E948E3421503109BE
:10141000410951099CC09C0181E0C111ADC095B545
:10142000987F892B85BD27BD8FEF9FEFDC018093CF
:10143000CE029093CF02A093D002B093D1028091BC
:101440006E00826080936E00C8CE82E0E6CFF12C01
:10145000E12C60E072E18AE790E0A70196010E942A
:101460008E34215031094109510991E0211531058E
:1014700081E0480751056CF068E478EE81E090E087
:10148000A70196010E948E3421503109410951096A
:1014900093E0C13009F076C080918100887F892B6C
:1014A0008093810030938900209388008FEF9FEF15
:1014B000DC018093CA029093CB02A093CC02B0933C
:1014C000CD0280916F00826080936F0086CE209362
:1014D000B3008FEF9FEFDC018093C6029093C702A9
:1014E000A093C802B093C90280917000826080937B
:1014F000700073CE84E02F3F31054105510509F09E
:1015000008F48DCF9AE0B594A794979487949A9510
:10151000D1F7A5019401215031094109510985E014
:101520007ECF83E02F3F31054105510509F00CF4D2
:1015300076CF62E17AE780E090E0A70196010E9411
:101540008E342150310941095109CC2399F286E0AA
:101550002F3F31054105510579F070F08AE0B594CF
:10156000A794979487948A95D1F7A5019401215067
:1015700031094109510987E09091B100987F892B89
:101580008093B100C13009F48DCFC23009F49FCFF0
:10159000C11123CE48CF1F93CF93DF93182FEB01B8
:1015A00061E00E94A008209739F460E0812FDF916C
:1015B000CF911F910C944608CF3FD10511F461E003
:1015C000F5CFE12FF0E0EC5AF74FE491E33031F141
:1015D00040F4E130B1F0E230E1F0C038D1057CF701
:1015E000E4CFE73029F1E83059F1E430B1F78091E8
:1015F0008000806280938000D0938B00C0938A002B
:1016000004C084B5806884BDC7BDDF91CF911F91B0
:10161000089584B5806284BDC8BDF7CF80918000F5
:10162000806880938000D0938900C0938800EDCFBC
:101630008091B00080688093B000C093B300E5CF84
:101640008091B00080628093B000C093B400DDCF81
:101650008E50806480937C0080917A0080648093B7
:101660007A0080917A0086FDFCCF8091780090917D
:10167000790008953FB7F89480915D0290915E02E1
:10168000A0915F02B091600226B5A89B05C02F3FD4
:1016900019F00196A11DB11D3FBFBA2FA92F982F98
:1016A0008827BC01CD01620F711D811D911D42E093
:1016B000660F771F881F991F4A95D1F708958F925B
:1016C0009F92AF92BF92CF92DF92EF92FF926B0107
:1016D0007C010E943A0B4B015C01C114D104E1046E
:1016E000F104B9F00E943A0B681979098A099B093B
:1016F000683E73408105910580F321E0C21AD1084C
:10170000E108F10888EE880E83E0981EA11CB11C48
:10171000E4CFFF90EF90DF90CF90BF90AF909F907D
:101720008F9008952FB7F8946091590270915A02E2
:1017300080915B0290915C022FBF0895EF92FF921F
:101740000F931F93CF93DF93EC01EC80FD806E1518
:101750007F050CF070C057FF04C0240F351F50E008
:1017600040E08E819F81FA01E20FF31F8E179F07E1
:101770001CF49C01241B350B121613060CF05BC0E5
:10178000922F842F8695869586958E9DD0018F9D6C
:10179000B00D11246A0F7B1FAF8DB8A1A60FB71F24
:1017A000477049F188E0841B482F682F70E0FB01E7
:1017B000EE5BF74FE491281708F063C0621B7109D4
:1017C0002FEF30E002C0359527956A95E2F7E223C6
:1017D0000130110539F0B0F10230110561F58C913D
:1017E000E82702C08C91E82BEC93941720F12C8110
:1017F0003D81A20FB31FE92FE41BE83078F00230DF
:10180000110521F58E2F9C9190959C932C813D8103
:10181000A20FB31F88508830B0F7E770EE2359F05D
:10182000F0E0E65CF74FE49101301105F9F010F1BA
:101830000230110519F1DF91CF911F910F91FF90A7
:10184000EF900895E0958C91E823CECF81E00115CB
:10185000110509F480E081959E2F8C932C813D81A8
:10186000A20FB31F98509830C0F7D7CF8C91E82BB8
:10187000EC93E1CFE0958C91E823FACF8C91E827A7
:10188000F7CF0130110509F4ADCFE0F202301105B8
:1018900009F4A5CFAE0DBF1DAECF0F931F93CF930D
:1018A000DF9377FF04C0260F371F70E060E0DC0194
:1018B0001496CD91DC91FB01E20FF31FCE17DF07E9
:1018C0001CF49E01261B370B121613064CF5FA0169
:1018D00057FD3796A3E0F595E795AA95E1F7EC9FBC
:1018E000D001ED9FB00DFC9FB00D11246A0F7B1F3E
:1018F000DC015F96ED91FC91E60FF71F47705527CD
:1019000081E090E001C0880F4A95EAF7482F013046
:10191000110559F0A8F02E0F3F1F02301105E1F01C
:10192000DF91CF911F910F9108952E0F3F1FE21766
:10193000F307B1F38191DF011197842B8C93F7CFDB
:1019400080952E0F3F1FE217F30751F39191DF01AE
:10195000119798239C93F7CFE217F30709F381912E
:10196000DF01119784278C93F7CF0F931F93FA0110
:10197000DC0156964C9156974230E9F04330A1F184
:10198000413061F514964D915C91DA01AE1BBF0BAD
:10199000FD01E21BF30B77FD0BC0DC0116964D91A8
:1019A0005C916417750724F4AB01BF010E944D0CD4
:1019B0001F910F91089514964D915C91DA01A61B29
:1019C000B70BBD0161507109DC0116964D915C9118
:1019D000DA01AE1BBF0BFD01E21BF30B77FDE8CF75
:1019E000AF010E949E0BE4CF16964D915C91DA01F7
:1019F000A61BB70BBD0161507109CDCF0F931F938B
:101A0000FA01DC0156964C9156974230A9F04330CA
:101A100091F1413019F514964D915C91DA01AE1BAC
:101A2000BF0BFD013197F7FD04C0AB01BF010E9460
:101A30009E0B1F910F91089514964D915C91DA01C0
:101A4000A61BB70BBD01DC0116964D915C91DA0126
:101A5000AE1BBF0BFD013197621B730BF7FDE9CF86
:101A6000DC0116964D915C91E417F50714F7AF0170
:101A70000E944D0CDECF16964D915C91DA01A61BAB
:101A8000B70BBD01621B730BCECFFC0177FD64C0A9
:101A900080859185681779070CF05EC057FD5CC0A2
:101AA00082859385481759070CF056C08689823085
:101AB000B1F0833029F1813041F484819581841B18
:101AC000950BAB01BC01615071092130310509F161
:101AD00008F443C02230310509F463C008958481BD
:101AE0009581DC01A61BB70BBD0161507109868190
:101AF0009781DC01A41BB50BAD0141505109E5CF25
:101B000086819781861B970BBA01AC014150510920
:101B1000DCCFCA0157FD0796A3E095958795AA9556
:101B2000E1F7A481B5818A9F90018B9F300D9A9F28
:101B3000300D1124620F731F078CF0A1E02DE60F0A
:101B4000F71F4770552721E030E001C0220F4A956A
:101B5000EAF78081822B80830895CA0157FD07969A
:101B600033E0959587953A95E1F7A481B5818A9FF1
:101B700090018B9F300D9A9F300D1124620F731FBF
:101B8000078CF0A1E02DE60FF71F4770552781E085
:101B900090E001C0880F4A95EAF7809590818923EB
:101BA000DACFCA0157FD079623E0959587952A95C8
:101BB000E1F7A481B5818A9F90018B9F300D9A9F98
:101BC000300D1124620F731F078CF0A1E02DE60F7A
:101BD000F71F4770552721E030E001C0220F4A95DA
:101BE000EAF780818227B7CF08958EBD00000DB43B
:101BF00007FEFDCF8EB508958CBD9DBD0895089557
:101C0000FC016370668B8481958126813781613008
:101C100039F0633029F091878087338722870895D0
:101C2000318720879387828708952F923F924F9222
:101C30005F926F927F928F929F92AF92BF92CF925C
:101C4000DF92EF92FF920F931F93CF93DF93CDB765
:101C5000DEB76A970FB6F894DEBF0FBECDBF9A8F7E
:101C6000898F7A8369834A01D22E18870F833701BF
:101C7000BC2CDC0159962D913C915A9721153105C8
:101C800009F015C118968D919C91199768177907DD
:101C90000CF0D7C11A968D919C91481759070CF0FA
:101CA000D0C14C2C512CB6E0CB9E600D711D11247F
:101CB0007C876B87161617060CF0C3C1EA2DF0E07F
:101CC000FA87E98793E0EE0FFF1F9A95E1F7F88B0B
:101CD000EF87CF01840F951F181619060CF0B1C1BC
:101CE000A98DBA8D58968C91811104C0BFEABD159B
:101CF00008F4D394A98DBA8DED91FC9111970284CB
:101D0000F385E02DCD010995B5E0DB9EC0011124DE
:101D1000E981FA81FC83EB83312C212C9C01265C28
:101D20003C4F388F2F8B4A2D50E05E8B4D8BEF89C7
:101D3000F88DE20DF31D44919E828D82D12CC12C31
:101D400069817A81620D731D7A8B698B842F90E093
:101D50009C8B8B8BE98DFA8DA081B18140FF82C075
:101D6000F1E0BF126FC0AF126DC01C96ED91FC91F7
:101D70002F813885A4014C0D5D1D69897A89898D73
:101D80009A8D0995EB89FC89F595E7954E2F5FEFC4
:101D9000C51AD50A6D817E818D899E89680F791F4C
:101DA0007E836D8398E0C916D10481F6AFEF2A1ABD
:101DB0003A0AEB81FC81E40DF51DFC83EB83F5E031
:101DC0002F16310409F0B3CF2F813885261537053A
:101DD000B9F0A98DBA8DED91FC91B1E0BB1257C05D
:101DE000AB1255C069817A816B5F7F4F0088F189A2
:101DF000E02D830128E030E0A401898D9A8D0995BA
:101E0000A98DBA8DED91FC9111970688F789E02D87
:101E1000CD016A960FB6F894DEBF0FBECDBFDF913D
:101E2000CF911F910F91FF90EF90DF90CF90BF90D7
:101E3000AF909F908F907F906F905F904F903F906A
:101E40002F9009941E96ED91FC91EF80F8840985FE
:101E50001A8592014D815E816B817C81898D9A8D7D
:101E6000099590CF2F8138852615370509F48ACF3B
:101E700031E0B31207C0A31205C01C96ED91FC918E
:101E8000930178CF1E96ED91FC917301E0CF6B85A5
:101E90007C85641975090684F785E02D73010F852B
:101EA00018899201A401898D9A8D0995A9CFF9010C
:101EB00034969491329745915491D91AB7E0DB9EAC
:101EC000400D511D1124F901259134913C8B2B8B30
:101ED000FA0125903490FA0132967490319634913B
:101EE000398B329664903196449041E04C1518F04D
:101EF0004A1508F07FC0662D062C000C770B7C83FA
:101F00006B83842D042C000C990B9E838D83A98DEB
:101F1000BA8DED91FC9111970284F385E02DCD01EE
:101F20000995512CD12CC12CEA2DF0E0FA87E987D4
:101F30002B2D30E03C872B87A401440D511D47FC1D
:101F40005A95588F4F8B69817A81660D711D67FC98
:101F50007A957E876D877989C71608F051CF2C2D29
:101F600030E04D815E81420F531FA985BA854A9F9B
:101F7000C0014B9F900D5A9F900D1124FC01E80D5C
:101F8000F91DF88BEF87852D612C4F89588D420FF5
:101F9000531F5E8B4D8B671408F050C0442443944C
:101FA000480E877041F4C1010196EB89FC89E20D6E
:101FB000F31DD4901C01D7FE19C0A98DBA8DED91E7
:101FC000FC91662D70E0B1E0BB1219C0AB1217C0D6
:101FD0002D853E85620F731F0484F585E02D2F81CA
:101FE00038854D895E89898D9A8D0995DD0C6394BC
:101FF000842DD1CF1E821D821C821B8288CF4B81F3
:102000005C81640F751FAB85BC856A9FC0016B9FA7
:10201000900D7A9F900D112469817A81680F791F44
:102020000684F785E02DEF80F88409851A859D01E7
:102030004F855889898D9A8D0995D8CF570CC394AF
:102040008ACF6A960FB6F894DEBF0FBECDBFDF9180
:10205000CF911F910F91FF90EF90DF90CF90BF90A5
:10206000AF909F908F907F906F905F904F903F9038
:102070002F9008958F929F92AF92CF92EF92FF92FE
:102080000F931F93CF93DF93EC01262F898D9A8DA9
:10209000009709F051C06A30D1F41D861C868D89E5
:1020A00048E0849F900111248E859F85820F931FA5
:1020B0009F878E8781E090E0DF91CF911F910F91F4
:1020C000FF90EF90CF90AF909F908F9008956D30DC
:1020D00089F3CC88AD888F898823C1F08C859D8554
:1020E00036E0C39E800D911D1124488559854817FF
:1020F000590764F44E855F851D861C8638E0A39ED3
:10210000C0011124840F951F9F878E87EA88FB8862
:10211000088919894E855F856C857D85CE010E9471
:10212000150E2C898C859D8546E0249F800D911D80
:1021300011249D878C87BECF6A3069F41D861C866A
:10214000FC013896E4912D898E859F85E29F800D54
:10215000911D1124ADCF6D3009F4ACCFFC01349644
:102160003491631708F4A6CF3296E491E61708F489
:10217000A1CFFC01329685909490462F431B342FBB
:1021800047E0349F800C911C1124F4013296349165
:102190003196E4913323A9F1EE2399F1CC88F4012F
:1021A0003596E491AD884F89442301F10E2E000C41
:1021B000FF0BE30FF11DCE9EA001CF9E500D112409
:1021C0006C857D85460F571F68857985641775076F
:1021D0006CF44E855F851D861C86FC013896E49163
:1021E000AE9E400D511D11245F874E87EA88FB8803
:1021F000088919894E855F856C857D85CE010E9491
:10220000150EF4013496E4912C898C859D85E29F0E
:10221000800D911D11248DCF6F927F928F929F928E
:10222000AF92BF92CF92DF92EF92FF920F931F93E4
:10223000CF93DF93EC016B015A0139014801E8812A
:10224000F9810284F385E02D0995E881F9810288FE
:10225000F389E02D87019301A501B601CE0109950F
:10226000A501480D591D41505109E881F9810288A5
:10227000F389E02D9301B601CE010995E881F9813A
:102280000088F189E02D9401A501B601CE010995E0
:10229000C60CD71CB60161507109E881F98100882C
:1022A000F189E02D9401A501CE010995E881F9811C
:1022B0000688F789E02DCE01DF91CF911F910F9114
:1022C000FF90EF90DF90CF90BF90AF909F908F9056
:1022D0007F906F9009946F927F928F929F92AF92AE
:1022E000BF92CF92DF92EF92FF920F931F93CF9303
:1022F000DF935C01EB016A01490138018701DC01D0
:10230000ED91FC916217730719F5641675062CF0B0
:10231000962D872D3A01C92ED82E960126193709F8
:102320002F5F3F4F048CF58DE02DA301BE01C50149
:102330000995DF91CF911F910F91FF90EF90DF9062
:10234000CF90BF90AF909F908F907F906F900895A7
:102350004615570591F42617370724F0892D4B01B0
:10236000C22FD82F9E01281939092F5F3F4F068CA5
:10237000F78DE02DA601B401DACF0284F385E02DBC
:102380000995D501ED91FC910488F589E02D830133
:102390009401A601BE01C5010995D501ED91FC91FD
:1023A0000688F789E02DC501DF91CF911F910F912C
:1023B000FF90EF90DF90CF90BF90AF909F908F9065
:1023C0007F906F900994EF92FF920F931F93DC011F
:1023D0001A960D911C911B9718962D913C91199767
:1023E000ED91FC9100A0F1A1E02D7B0150E040E0D7
:1023F00070E060E009951F910F91FF90EF900895B4
:102400004F925F926F927F928F929F92AF92BF9204
:10241000CF92DF92EF92FF920F931F93CF93DF93B0
:102420006C012B015A0139014801DC01ED91FC914D
:102430000284F385E02D0995E201640C751CD60138
:10244000ED91FC91C615D7055CF40088F189E02D6B
:1024500087019401A501BE01C60109952196EFCF20
:102460000688F789E02DC601DF91CF911F910F916A
:10247000FF90EF90DF90CF90BF90AF909F908F90A4
:102480007F906F905F904F9009948F929F92AF9240
:10249000BF92CF92DF92EF92FF920F931F93CF9351
:1024A000DF93EC015B014A016901E881F981028453
:1024B000F385E02D099595012C0D3D1D2150310925
:1024C000E881F9810488F589E02D78018401A4016F
:1024D000B501CE010995E881F9810688F789E02DDB
:1024E000CE01DF91CF911F910F91FF90EF90DF9080
:1024F000CF90BF90AF909F908F9009948F929F92B2
:10250000AF92BF92CF92DF92EF92FF920F931F9301
:10251000CF93DF93EC015B014A0169017801E88107
:10252000F9810284F385E02D0995C80CD91C860138
:1025300001501109E881F9810488F589E02D9501A0
:10254000A401B501CE010995E881F9810688F789D2
:10255000E02DCE01DF91CF911F910F91FF90EF9071
:10256000DF90CF90BF90AF909F908F900994EF92A3
:10257000FF920F931F93DC01ED91FC9100A0F1A15C
:10258000E02D09951F910F91FF90EF9008950F9303
:102590001F93DC01ED91FC91068CF78DE02D0995E0
:1025A0001F910F9108950F931F93DC01ED91FC9102
:1025B000048CF58DE02D09951F910F910895DC0194
:1025C000ED91FC910084F185E02D09943F924F92AA
:1025D0005F926F927F928F929F92AF92BF92CF92B3
:1025E000DF92EF92FF920F931F93CF93DF9300D070
:1025F00000D0CDB7DEB75C013B016A01490128017B
:1026000087E0480E511C93E0559447949A95E1F762
:10261000CA018E0D9F1D9A838983F12CE12C312CE8
:102620001C821B828B819C8187709927330C892B9C
:1026300061F4EB81FC8183E0F595E7958A95E1F7FC
:10264000EE0DFF1DE80DF91D349037FE0AC021E0A4
:1026500030E0A6016B817C81660D771DC5010E946B
:10266000DF128B819C8101969C838B83081719074D
:10267000C9F69FEFC91AD90AE40CF51C89819A8121
:10268000C816D90669F60F900F900F900F90DF9142
:10269000CF911F910F91FF90EF90DF90CF90BF905F
:1026A000AF909F908F907F906F905F904F903F90F2
:1026B00008952F923F924F925F926F927F928F92E6
:1026C0009F92AF92BF92CF92DF92EF92FF920F93C1
:1026D0001F93CF93DF9300D000D000D0CDB7DEB7EB
:1026E0003C016A013E832D83FC82EB825801A41ACF
:1026F000B50AB7FE03C0B194A194B1088D809E8045
:10270000861A970A97FE03C09194819491088A14BF
:102710009B045CF0902F812F0D811E819D838E8301
:102720009C2D8D2D6B01692F782F0C151D055CF0EC
:102730009D818E817E836D83692F782F902F812FCD
:102740008601C92ED82E1601201A310A2B012D819F
:102750003E81421A530A57FE03C0519441945108D6
:10276000710137FE03C03FEFE31AF30AF594E794D3
:102770008D819E81861797075CF5A1E0B0E0BA8352
:10278000A983C016D1064CF1D301ED91FC910484CC
:10279000F585E02D2B813C81A8016D817E818A1415
:1027A0009B041CF04D815E81B801C3010995E418BA
:1027B000F508F7FE0AC02D813E8189819A81280F94
:1027C000391F3E832D83E20CF31C0F5F1F4FD9CFBF
:1027D0002FEF3FEF3A832983D4CF26960FB6F89494
:1027E000DEBF0FBECDBFDF91CF911F910F91FF9044
:1027F000EF90DF90CF90BF90AF909F908F907F90A1
:102800006F905F904F903F902F9008950895209182
:102810003502260F3327331F21323105ECF4209186
:10282000F802FC0190E080E0243069F082E0089535
:10283000A09135022191AC014B5E5D4FA40FB52FE5
:10284000B11D2C930196861798F380913502680F7D
:102850006093350280E0089581E008951092F802B7
:1028600081E08093F7021092F20261E082E10E941F
:10287000460861E083E10E944608E9EBF0E08081D0
:102880008E7F808380818D7F808388E48093B800F1
:1028900085E48093BC000895CF93DF9391E09093FB
:1028A00014028823B9F0C091B800D091BA00809189
:1028B000BC008A7B8093BC0060E082E10E944608F5
:1028C00060E083E10E9446080E942E14D093BA0073
:1028D000C093B800DF91CF910895E091FF028091FD
:1028E000FE02E81730F4F0E0E050FD4F808190E008
:1028F00008958FEF9FEF08959091FF028091FE025F
:102900002FEF3FEF981748F4E92FF0E0E050FD4F2C
:10291000208130E09F5F9093FF02C901089580916C
:10292000FE029091FF02891B990B0895CF92DF92CE
:10293000EF92FF920F931F93CF93DF937C01CB0114
:102940008A0120912303222389F0EB016B01C40E3D
:10295000D51ECC15DD0569F06991D701ED91FC918B
:102960000190F081E02DC7010995F3CF642F0E94FB
:102970000714C801DF91CF911F910F91FF90EF9045
:10298000DF90CF900895CF93DF931F92CDB7DEB73E
:102990006983209123032223F9F020912003203220
:1029A00058F021E030E0FC013383228390E080E0A6
:1029B0000F90DF91CF91089580912103E82FF0E0EF
:1029C000EC50FE4F998190838F5F80932103809319
:1029D000200381E090E0ECCF61E0CE0101960E94FF
:1029E0000714F7CF682F81EC93E00C94C314CF92B7
:1029F000DF92EF92FF920F931F93CF93DF93D091CB
:102A0000200381E0D13208F09CC0C09122030E94D3
:102A10003A0B6B017C018091F80281116CC082E05D
:102A20008093F80281E08093F7028FEF8093F602A3
:102A30001092F502D093F402A4EFB1E0E2EDF2E0DF
:102A400080E0D8138DC01092F3028091F302CC0F76
:102A5000C82BC093F3028091F202813009F084C048
:102A60001092F2020E943A0B6B017C018091F302FA
:102A70008093BB008091FA029091FB02A091FC022E
:102A8000B091FD02892B8A2B8B2BA1F00E943A0B6F
:102A90000091FA021091FB022091FC023091FD029C
:102AA0006C197D098E099F09061717072807390732
:102AB00008F442C08091BC0083FDD8CF85EC8093A0
:102AC000BC000E943A0B6B017C018091F8028230BD
:102AD00009F44CC08091F6028F3F09F469C08091DF
:102AE000F602803209F466C08091F602803309F460
:102AF00063C084E026C08091FA029091FB02A0910D
:102B0000FC02B091FD02892B8A2B8B2B09F483CF19
:102B10000E943A0B0091FA021091FB022091FC02F4
:102B20003091FD026C197D098E099F090617170760
:102B30002807390708F06FCF8091F9020E944C14E2
:102B400085E0109221031092200310922303DF915D
:102B5000CF911F910F91FF90EF90DF90CF9008954C
:102B60009D9191938F5F6DCF85EEA9CF8091FA02F1
:102B70009091FB02A091FC02B091FD02892B8A2B5F
:102B80008B2B09F4A2CF0E943A0B0091FA0210910C
:102B9000FB022091FC023091FD026C197D098E0927
:102BA0009F09061717072807390708F08ECFC4CFEB
:102BB00080E0C7CF82E0C5CF83E0C3CFEF92FF9222
:102BC0000F931F93CF937C01C62F8091EA039091BE
:102BD000EB03892B09F44EC08091EE030E94DA06C4
:102BE0008091EA039091EB03DC01ED91FC9101905F
:102BF000F081E02D60E009958701EE24E394F12C4B
:102C0000C1508091EA039091EB03CF3F61F1B0E2B4
:102C1000EB16F104A8F00E94F7148091EE030E94D5
:102C2000DA068091EA039091EB03DC01ED91FC91CF
:102C30000190F081E02D60E00995EE24E394F12C01
:102C40008091EA039091EB03F8016491DC01ED912E
:102C5000FC910190F081E02D0995BFEFEB1AFB0A82
:102C60000F5F1F4FCDCFCF911F910F91FF90EF902E
:102C70000C94F714E091FA03F091FB03908180919A
:102C800000048095892380838701C15008F438C0EF
:102C9000F80184912091E8033091E903232B29F076
:102CA0000E94F50D0F5F1F4FF0CF28E030E040E8A5
:102CB000E091F603F091F7039091FE03582F54230F
:102CC000D9F05081952B9083E091F803F091F903AE
:102CD00090815091FF03952B9083E091F803F09140
:102CE000F90350819091FF03909595239083469529
:102CF00021503109E9F6D6CF508190959523E3CF45
:102D0000CF911F910F91FF90EF9008951F93CF9354
:102D1000DF93EC018D8D9E8D892BF9F0162F89A103
:102D20000E94DA068D8D9E8DDC01ED91FC91019063
:102D3000F081E02D60E009958D8D9E8DDC01ED9197
:102D4000FC910190F081E02D612F09958D8D9E8D74
:102D5000DF91CF911F910C94F714ADA5BEA59C9166
:102D60008BA9809589238C938B8D9C8D892B31F039
:102D7000862FDF91CF911F910C94F50D28E030E064
:102D800080E8A9A5BAA599A9462F4823C1F04C917E
:102D9000942B9C93ABA5BCA59C914AA9942B9C9386
:102DA000ABA5BCA54C919AA9909594239C9386952C
:102DB0002150310931F7DF91CF911F9108954C9146
:102DC00090959423E6CFEF92FF920F931F93CF93AA
:102DD000DF938091EA039091EB03892B09F48DC076
:102DE00020910204309103044091040450910504A1
:102DF00060E074E284EF90E00E946C34205131096D
:102E00004109510956954795379527952093B80064
:102E100065E087E59DE00E94DE156091D103615079
:102E20008DEC93E00E9486162091D3033091D40359
:102E3000C901079697FD079633E0959587953A95D2
:102E4000E1F72091D1033091D203829F8001839FCB
:102E5000100D929F100D1124C091EC03D091ED0341
:102E60008091EA039091EB030C0F1D1F892B09F44D
:102E700083C08091EE030E94DA068091EA0390916C
:102E8000EB03DC01ED91FC910190F081E02D60E419
:102E90000995EE24E394F12C8091EA039091EB03E1
:102EA0000C171D0709F440C0B0E2EB16F104A8F0BE
:102EB0000E94F7148091EE030E94DA068091EA03E3
:102EC0009091EB03DC01ED91FC910190F081E02DFC
:102ED00060E40995EE24E394F12C8091EA0390914B
:102EE000EB036991DC01ED91FC910190F081E02D03
:102EF0000995BFEFEB1AFB0ACFCF8091E8039091C1
:102F0000E903892B31F080910B0490910C040E940D
:102F1000FC0DE091FC03F091FD0390818091010490
:102F200080958923808374CF0E94F7148091EA03EF
:102F30009091EB03892B09F460C020910604309135
:102F40000704409108045091090460E074E284EFA2
:102F500090E00E946C342051310941095109569585
:102F60004795379527952093B800DF91CF911F9112
:102F70000F91FF90EF900895E091FA03F091FB0319
:102F8000808190910004892B80830C171D0771F2BA
:102F900089912091E8033091E903232B19F00E94D5
:102FA000F50DF3CF28E030E040E8E091F603F09132
:102FB000F7039091FE03582F5423D9F05081952B9D
:102FC0009083E091F803F091F90390815091FF0311
:102FD000952B9083E091F803F091F9035081909143
:102FE000FF03909595239083469521503109E9F68A
:102FF000CCCF508190959523E3CFE091FC03F091E5
:10300000FD03808190910104892B8083AECF1F93B3
:10301000CF93DF93EC01162F8D8D9E8D892BB1F10F
:103020002DA93EA94FA958AD60E074E284EF90E06D
:103030000E946C3420513109410951095695479538
:10304000379527952093B80066EA111167EACE01FB
:103050000E9486168D8D9E8D892B41F129AD3AAD4A
:103060004BAD5CAD60E074E284EF90E00E946C34A4
:1030700020513109410951095695479537952795B2
:103080002093B800DF91CF911F9108958B8D9C8D77
:10309000892B21F08EAD9FAD0E94FC0DEFA5F8A904
:1030A00090818CA9809589238083CECFEFA5F8A944
:1030B00080819CA9892B8083E5CF90E080E00895F2
:1030C0000F931F93CF93DF93EB018A01BC01990FFC
:1030D000880B990B0E9404332DEC3CEC4CEC5DE327
:1030E0000E94903320E030E040E751E40E949033AA
:1030F0000E94CC3285E00E94CB0AB801110F880BE8
:10310000990B0E9404332DEC3CEC4CEC5DE30E94E7
:10311000903320E030E040E751E40E9490330E9479
:10312000CC3283E00E94CB0ABE01DD0F880B990BE5
:103130000E9404332DEC3CEC4CEC5DE30E94903398
:1031400020E030E040E751E40E9490330E94CC320E
:1031500086E00E94CB0ADF91CF911F910F910895D5
:103160008F929F92AF92BF92CF92DF92EF92FF9297
:103170000F931F93CF93DF937C01D62F0E943A0BBE
:103180004B015C018091F802811167C0CD2F81E075
:103190008093F8028093F7029FEF9093F6021092CB
:1031A000F5029D0F9093F4028093F3028091F30255
:1031B000EE0CFF1C8E298093F3028091F202813085
:1031C00009F083C01092F2020E943A0B6B017C015D
:1031D0008091F3028093BB008091FA029091FB02F0
:1031E000A091FC02B091FD02892B8A2B8B2BA1F0C0
:1031F0000E943A0B8090FA029090FB02A090FC0291
:10320000B090FD026C197D098E099F0986169706FC
:10321000A806B90608F442C08091BC0083FDD8CF4F
:1032200085EC8093BC000E943A0B6B017C0180917D
:10323000F802813009F44BC08091F5028D1710F42B
:10324000C091F502E2EDF2E0A0E0B3E080E08C177F
:1032500051F191919D938F5FFACF8091FA029091F5
:10326000FB02A091FC02B091FD02892B8A2B8B2BD3
:1032700009F488CF0E943A0B0091FA021091FB02E8
:103280002091FC023091FD02681979098A099B0995
:10329000061717072807390708F074CF8091F9023D
:1032A0000E944C14C0E01092FF02C093FE028C2FCB
:1032B000DF91CF911F910F91FF90EF90DF90CF9012
:1032C000BF90AF909F908F90089585EEAACF809188
:1032D000FA029091FB02A091FC02B091FD02892BB1
:1032E0008A2B8B2B09F4A3CF0E943A0B8090FA0211
:1032F0009090FB02A090FC02B090FD026C197D0939
:103300008E099F0986169706A806B90608F08FCF82
:10331000C5CF2091D3033091D403C901079697FDFF
:10332000079623E0959587952A95E1F72091D1039B
:103330003091D203829FA001839F500D929F500D28
:10334000112470E060E08091EC039091ED030C9407
:10335000DD350E94D835FB0101900020E9F7319757
:10336000AF01461B570BDC01ED91FC910280F3810C
:10337000E02D09948F929F92AF92BF92EF92FF92AD
:103380000F931F93CF93DF93CDB7DEB7A1970FB6FF
:10339000F894DEBF0FBECDBF7C01FA01CB0119A2AC
:1033A000223008F42AE08E010F5D1F4F822E912CEF
:1033B000B12CA12CBF01A50194010E946C34F9012C
:1033C000CA016A300CF5605DD8016E938D01232B24
:1033D000242B252B79F790E080E0109721F0BD0198
:1033E000C7010E94AB19A1960FB6F894DEBF0FBEBD
:1033F000CDBFDF91CF911F910F91FF90EF90BF90C4
:10340000AF909F908F900895695CDECFCF92DF924E
:10341000EF92FF920F931F93CF93DF93EC016A011A
:103420007B01E881F9810190F081E02D6DE2099541
:103430008C0144275527BA014C195D096E097F0993
:103440002AE0CE010E94BA19800F911FDF91CF911F
:103450001F910F91FF90EF90DF90CF900895AB01F7
:10346000770F660B770B2AE00C94BA19BC018DEC30
:1034700093E00C94AB19CF92DF92EF92FF920F93EF
:103480001F93CF93DF93EC0162E08DEC93E00E94F9
:10349000000E0E94891981E08093E1038093E2038A
:1034A00081E090E09093E0038093DF039093DE034C
:1034B0008093DD03C130D105B9F430E4E32EF12C63
:1034C00000E410E02AE331E050E040E060E270E028
:1034D0008DEC93E00E94E6120E94E31660ED77E027
:1034E00080E090E00E945F0BC090B902D090BA02D9
:1034F000E090BB02F090BC022CEDC20E25E0D21E83
:10350000E11CF11C0E94920BC616D706E806F906CC
:10351000C0F461E070E080E590E00E94B018909106
:10352000FE028091FF02981799F11092F3010E9418
:10353000920B6093B9027093BA028093BB0290938E
:10354000BC02809190029091F201891729F1809339
:10355000F20181E020918802309189024091F001CE
:103560005091F101243893E0390708F460C14538DF
:103570005340A0F43093F1012093F001243883E00C
:10358000380721F43093F1012093F00181E00AC063
:1035900081E08093F301CBCF80E0DCCF243893E04F
:1035A000390781F3909174022091EF01921719F07D
:1035B0009093EF0181E09091F3012091EE01921739
:1035C00009F43AC19093EE01CD2B09F03FC181E09F
:1035D0008093ED019EE1E92EF12C02E310E028E654
:1035E00030E049E050E060E570E08DEC93E00E944F
:1035F000E612EE24E394F12C05E010E028E030E040
:103600004AE250E068E770E08DEC93E00E940C1114
:103610008091F30181110FC0EE24E394F12C05E0B9
:1036200010E028E030E04AE250E068E770E08DEC1E
:1036300093E00E9400128091F301882371F0F12C35
:10364000E12C03E010E026E030E04BE250E069E7D7
:1036500070E08DEC93E00E9400121092DA03109259
:10366000D9031092DC031092DB0387E591E00E94FE
:10367000361A80919002811104C08EE591E00E947B
:10368000361A80919002813021F484E691E00E9404
:10369000361A80919002823021F489E691E00E94EE
:1036A000361A80919002833021F480E791E00E94E5
:1036B000361A80919002843021F487E791E00E94CD
:1036C000361A1092DA031092D9038CE090E09093AE
:1036D000DC038093DB038CE791E00E94361A809133
:1036E00088029091890261E070E08438934010F480
:1036F00070E060E08DEC93E00E942F1A1092DA03E4
:103700001092D90386E190E09093DC038093DB0371
:1037100086E891E00E94361A809185029091860297
:1037200068EC70E00E945834AB0170E060E02AE081
:103730008DEC93E00E94BA191092DA031092D9032B
:1037400080E290E09093DC038093DB0380E991E0DA
:103750000E94361A80918702811181C02AE046E0DA
:1037600050E060E070E08DEC93E00E94BA1980E5D3
:1037700090E09093DA038093D9031092DC031092C7
:10378000DB034091670250E070E060E02AE08DECDE
:1037900093E00E94BA1987E690E09093DA03809351
:1037A000D9031092DC031092DB038EE991E00E94B2
:1037B000361A1092DA031092D90389E290E09093BE
:1037C000DC038093DB0383EA91E00E94361A809148
:1037D0007B02813009F048C04091740250E070E0F3
:1037E00060E02AE08DEC93E00E94BA198BE690E04D
:1037F0009093DA038093D90389E290E09093DC03FD
:103800008093DB0381EB91E00E94361A1092DA0379
:103810001092D90387E390E09093DC038093DB035D
:1038200084EB91E00E94361A0E94E3160FC04438E0
:10383000534008F0A7CEB6CECD2B41F4813009F429
:10384000C6CE8091ED01882309F4C1CEDF91CF91DE
:103850001F910F91FF90EF90DF90CF9008958AE92C
:1038600091E00E94361A83CF8DEA91E00E94361AC9
:10387000BDCF85ED8093BC008091FA029091FB0250
:10388000A091FC02B091FD020796A11DB11D23E09D
:10389000B695A795979587952A95D1F72091BC0065
:1038A00024FD03C01092F80208954091FA0250914D
:1038B000FB026091FC027091FD02452B462B472BC9
:1038C00069F30097A105B10541F02AE22A95F1F7C5
:1038D00000C00197A109B109E1CF8091F9020C94D0
:1038E0004C140C944C328F929F92AF92BF92CF9215
:1038F000DF92EF92FF920F931F93CF93DF93EC0130
:10390000C0907502D0907602E0907702F090780235
:1039100080917B02811162C00E94920B6C197D091B
:103920008E099F094AE0842E912CA12CB12CA5016F
:1039300094010E946C3469017A01CA01B901A501A0
:1039400094010E946C34653071058105910528F061
:103950004AE0C40ED11CE11CF11CC701B6012AE0EB
:1039600030E040E050E00E946C34890180918B028D
:10397000882391F180E10E94280B2FEF33E0A90109
:10398000481B590BCA0161E04F38510520F06FE820
:1039900070E00E945834862FCC0FDD1F60918A02A0
:1039A000629560711F70612B8295880F807E682BF5
:1039B000CE0101970E94711C602FCE01DF91CF9143
:1039C0001F910F91FF90EF90DF90CF90BF90AF903D
:1039D0009F908F900C94711C80E0DECFCC0FDD1F88
:1039E000CC0FDD1F23970E94920B6C197D098E0965
:1039F0009F092AE0822E912CA12CB12CA5019401C3
:103A00000E946C3469017A01CA01B901A5019401CF
:103A10000E946C34653071058105910528F05AE0EB
:103A2000C50ED11CE11CF11CC701B6012AE030E033
:103A300040E050E00E946C3469017A0180918B0271
:103A4000882309F455C080E10E94280B2FEF33E052
:103A5000A901481B590BCA0161E04132510520F010
:103A600061E270E00E945834862F10918A02110F93
:103A7000110F1470880F880F880F182B0091740293
:103A8000017080E50E94DA068D2F9D2F990F990B0A
:103A90000E94F214CE0199270E94F214612F81EC4A
:103AA00093E00E94C3146C2D81EC93E00E94C31438
:103AB00099278F2D7E2D6D2D81EC93E00E94C314EC
:103AC000602F81EC93E00E94C31481EC93E00E948C
:103AD000F7148093F301DF91CF911F910F91FF9025
:103AE000EF90DF90CF90BF90AF909F908F90089510
:103AF00080E0BBCF0C944432CF92DF92EF92FF92E2
:103B00000F931F93CF93DF9300918502109186024C
:103B100020917B02EC01211132C0CC0FDD1FCE01C0
:103B200001970E947A1DE82EF12CCE010E947A1D89
:103B3000E4FA992790F9909380023E2D22272227BC
:103B40003F70282B30937A022093790235E0F69467
:103B5000E7943A95E1F7E09EC001E19E900DF09E5A
:103B6000900D11249093EC018093EB01DF91CF91A4
:103B70001F910F91FF90EF90DF90CF900895CC0FA1
:103B8000DD1FCC0FDD1F239780E50E94DA068D2F05
:103B90009D2F990F990B0E94F214CE0199270E9434
:103BA000F21481EC93E00E94F71464E070E080E589
:103BB00090E00E94B018C091FE028091FF02C817E9
:103BC00009F44CC081EC93E00E947C14F82E109212
:103BD000F3018091FF02C81729F081EC93E00E9465
:103BE0007C14C82E8091FF02C81729F081EC93E065
:103BF0000E947C14E82E8091FF02C81729F081EC06
:103C000093E00E947C14D82E81EC93E00E94F7147C
:103C1000F2FA882780F9809380029E2D8C2D909354
:103C20007A0280937902D092EA01F694F694F6949F
:103C3000F09EB001F19E700D112490E080E00E9492
:103C400002332DE138E347E65EE30E9490330E94A1
:103C5000D3327093EC016093EB0188CF81E08093C5
:103C6000F301B7CF4F925F926F927F928F929F92A4
:103C7000AF92BF92CF92DF92EF92FF920F931F937A
:103C8000CF93DF9387EE93E00E947A1D80938202A8
:103C90001092740260E08DE00E94460880916602F6
:103CA00080FFA6C0C0E0D1E088E00E941D08019717
:103CB000F1F4CC2391F188E00E941D08892B09F0D2
:103CC0008BC06CED75E080E090E0DF91CF911F91AB
:103CD0000F91FF90EF90DF90CF90BF90AF909F90AB
:103CE0008F907F906F905F904F900C945F0BC0907F
:103CF000A102D090A202E090A302F090A40220E2E0
:103D0000C20E23E0D21EE11CF11C0E94920B6C1526
:103D10007D058E059F0568F2CECFC0918102C1114D
:103D2000CACF84E10E94280B909389028093880275
:103D300090E080E00E943B1A85E10E94280B8438C5
:103D400093402CF08BE00E947408C1E0ADCF8091CD
:103D5000E20181110CC00E94920B6093DE0170930E
:103D6000DF018093E0019093E101D093E2010E9492
:103D7000920B0091DE011091DF012091E001309162
:103D8000E101601B710B820B930B693E734081054F
:103D9000910508F489CF50E040E06EE170E090E0DA
:103DA00080E00E94601864E670E080E090E00E948D
:103DB0005F0B50E040E070E060E090E080E00E9447
:103DC00060180E94920B6093DE017093DF01809374
:103DD000E0019093E10168CF80918102811108C0D8
:103DE00050E040E062E370E090E080E00E94601804
:103DF0000E94920B6093DA017093DB018093DC01E7
:103E00009093DD0160E570E080E090E00E945F0B40
:103E1000612C712C01E010E0D0E0C0E055245A94F0
:103E200084E6882E912CA12CB12C4424439488E064
:103E30000E941D08019709F043C080918D02909166
:103E40008E028017910708F052C08BE00E94740820
:103E500050E040E070E060E090E080E00E94601898
:103E60000E94920B6093A1027093A2028093A3021E
:103E70009093A40260E08DE00E94460810927402C4
:103E800060E08DE00E94460860E08EE00E944608F7
:103E900060E08CE00E94460860E08FE0DF91CF9107
:103EA0001F910F91FF90EF90DF90CF90BF90AF9058
:103EB0009F908F907F906F905F904F900C944608EA
:103EC000C090A102D090A202E090A302F090A402C0
:103ED00080E2C80E83E0D81EE11CF11C0E94920B08
:103EE0006C157D058E059F0508F4A7CFAECF24E69F
:103EF000251508F059C0C8010E947C1D84E10E946C
:103F0000280B909389028093880290E080E00E94C1
:103F10003B1AC0907902D0907A02F12CE12C0E94D9
:103F2000920B2091DA013091DB014091DC0150913C
:103F3000DD01621B730B840B950BA50194010E949C
:103F40006C342C153D054E055F0570F10F5F1F4F5A
:103F500080918D0290918E020817190740F0809190
:103F60008202813031F080918102813011F0611044
:103F70009CC080918002813009F08CC061E08CE0AF
:103F80000E94460861E08EE00E944608712C609114
:103F9000EA01609374028DE00E944608C091EB0133
:103FA000D091EC01662463945394C0908D02D0901C
:103FB0008E0280918202811166C1209741F080912A
:103FC0008802909189028438934008F457C18BE0AD
:103FD0000E94740861E08FE00E944608C016D10676
:103FE00008F025CFF0908102F11021CF8BE00E94E4
:103FF00074081092740260E08DE00E94460880917F
:10400000660280FDA1C10E94920B6093DA01709359
:10401000DB018093DC019093DD018BE00E9474084A
:10402000C5E050E040E070E060E090E080E00E9499
:10403000601862E370E080E090E00E945F0B50E067
:1040400040E062E370E090E080E00E94601862E38C
:1040500070E080E090E00E945F0B50E040E070E094
:1040600060E090E080E00E94601862E370E080E031
:1040700090E00E945F0B50E040E062E370E090E06F
:1040800080E00E946018C15061F601E010E0D0E0CD
:10409000C0E0CDCE60E08CE00E94460860E08EE09B
:1040A0000E9446087724739472CF80918802909181
:1040B00089028538934008F0DBC06091EA01809165
:1040C0007402681729F0609374028DE00E9446081C
:1040D00080918002E090EB01F090EC01813009F0DA
:1040E00074C078124BC061E08EE00E944608E11473
:1040F000F10409F43EC07090870271103AC0B70114
:1041000090E080E00E9402330E9403340E94CC328F
:104110006B01CC9C7001CD9CF00CF00C1124E114CF
:10412000F10469F0C7010E94DC0866E070E080E0FD
:1041300090E00E945F0B21E0C21AD108EACF61E053
:104140008CE00E944608EE9CC001EF9C900D900D03
:1041500011248C179D0708F052C10E94DC0866E00C
:1041600070E080E090E00E945F0B8FEFE81AF80AA1
:10417000EACF61E08CE00E944608712C209709F498
:1041800012C1EF2809F00ACF80918702811106CF72
:10419000BE0190E080E00E9402330E9403340E943E
:1041A000CC32EB01CC9FC001CD9F900D900D11241E
:1041B000009709F4F3CE0E94DC0866E070E080E02E
:1041C00090E00E945F0B2197EDCF8111D7CF711046
:1041D000D5CF8BE00E94740860E08EE00E94460814
:1041E000E114F10409F43EC08091870281113AC0C4
:1041F000B70190E080E00E9402330E9403340E94E5
:10420000CC326B01CC9C7001CD9CF00CF00C1124D5
:10421000E114F10469F0C7010E94DC0866E070E077
:1042200080E090E00E945F0B21E0C21AD108EACF43
:1042300060E08CE00E944608EE9CC001EF9C900D6F
:10424000900D11248C179D0708F0D8C00E94DC083F
:1042500066E070E080E090E00E945F0B8FEFE81A6C
:10426000F80AEACF60E08CE00E944608762C86CF00
:104270008BE00E94740861E08FE08ECECE010E9438
:10428000DC0860E0A8CE209709F4A1CEE090880277
:10429000F09089020C151D0508F0A7C085E8E81606
:1042A00083E0F80638F4CE010E94DC0860E08FE07D
:1042B0000E94460884E8E81683E0F80608F48ECEEB
:1042C00086CE8091D20181110CC00E94920B609326
:1042D000CE017093CF018093D0019093D101409291
:1042E000D2010E94920B2091CE013091CF014091DA
:1042F000D0015091D101621B730B840B950B693E69
:1043000073408105910500F150E040E06EE170E0FE
:1043100090E080E00E94601864E670E080E090E049
:104320000E945F0B50E040E070E060E090E080E0D1
:104330000E9460180E94920B6093CE017093CF018F
:104340008093D0019093D10188E00E941D080197CD
:1043500009F09DCEF1109BCEF0908102F11097CE26
:1043600085E10E94280B843893400CF4AACF0E9468
:10437000920B6093DA017093DB018093DC019093E0
:10438000DD018BE00E94740850E040E062E370E0E1
:1043900090E080E00E946018FF24F39401E010E0B8
:1043A00055245A94D1CFE090EB01F090EC01E11448
:1043B000F10409F4F3CD809187028111EFCDD0E0B3
:1043C000C0E0CC9FC001CD9F900D900D11248E15A3
:1043D0009F0508F0E3CD0E94DC0866E070E080E015
:1043E00090E00E945F0B2196ECCF25E8E21623E0D7
:1043F000F20608F0ECCD88EC90E056CF762CCD2B71
:1044000009F0CCCDE090EB01F090EC01D4CF1F92FD
:104410000F920FB60F9211242F933F934F935F93F8
:104420006F937F938F939F93AF93BF93EF93FF937C
:104430008091C6029091C702A091C802B091C902B2
:10444000892B8A2B8B2BD1F19091C102E091C20272
:10445000F091C3028081892780838091C602909168
:10446000C702A091C802B091C902181619061A060F
:104470001B069CF48091C6029091C702A091C802CD
:10448000B091C9020197A109B1098093C602909326
:10449000C702A093C802B093C902FF91EF91BF91E8
:1044A000AF919F918F917F916F915F914F913F91CC
:1044B0002F910F900FBE0F901F90189580910001C3
:1044C0000E947408EACF1F920F920FB60F92112428
:1044D0002F933F934F935F936F937F938F939F930C
:1044E000AF93BF93EF93FF9384E293E00E9465073D
:1044F000FF91EF91BF91AF919F918F917F916F91BC
:104500005F914F913F912F910F900FBE0F901F9091
:1045100018951F920F920FB60F9211242F938F931D
:104520009F93EF93FF93E0913403F09135038081E3
:10453000E0913A03F0913B0382FD1BC09081809192
:104540003D038F5F8F7320913E03821741F0E0910E
:104550003D03F0E0EC5DFC4F958F80933D03FF91B0
:10456000EF919F918F912F910F900FBE0F901F9001
:1045700018958081F4CF1F920F920FB60F921124DD
:104580002F933F938F939F93AF93BF938091590243
:1045900090915A02A0915B02B0915C023091580256
:1045A00023E0230F2D3758F50196A11DB11D20934F
:1045B00058028093590290935A02A0935B02B093E1
:1045C0005C0280915D0290915E02A0915F02B091C9
:1045D00060020196A11DB11D80935D0290935E0261
:1045E000A0935F02B0936002BF91AF919F918F91B2
:1045F0003F912F910F900FBE0F901F90189526E8B6
:10460000230F0296A11DB11DD2CF1F920F920FB69C
:104610000F9211242F933F934F935F936F937F9348
:104620008F939F93AF93BF93EF93FF938091B900C4
:10463000887F803609F44AC0F0F5883209F4A7C0B3
:1046400018F5803109F49BC0B8F4882309F4F9C047
:10465000883009F494C0FF91EF91BF91AF919F9181
:104660008F917F916F915F914F913F912F910F901B
:104670000FBE0F901F901895883109F488C08032C2
:1046800051F78093F60214C0803409F49DC040F4C1
:104690008033B9F38833F9F68093F60285ECB0C025
:1046A000803509F485C0883509F496C0883499F6B8
:1046B0000E94391CD0CF883909F48CC038F588376E
:1046C00029F050F4883611F0803729F683E0809382
:1046D000F8021092570257C0883809F47BC080391D
:1046E00019F0803809F0B7CF80915702803208F076
:1046F00071C0E091570281E08E0F80935702809144
:10470000BB00F0E0E95CFD4F80833DC0803B39F0A9
:10471000E0F4803A09F479C0883A09F09CCF84E04B
:104720008093F8021092360210923502E0916402F2
:10473000F091650209958091350281110FC081E0E9
:10474000809335021092150209C0803C09F4A6CF6F
:10475000883C09F4A3CF883B09F07DCFE091360275
:1047600081E08E0F80933602F0E0EB5EFD4F80819A
:104770008093BB00909136028091350229C08091D0
:10478000F3028093BB0085EC8093BC0064CF9091D2
:10479000F5028091F402981758F5E091F50281E056
:1047A0008E0F8093F502F0E0EE52FD4F8081E9CF4D
:1047B000E091F50281E08E0F8093F5028091BB00BD
:1047C000F0E0EE52FD4F80839091F5028091F4026B
:1047D0009817C8F285E8D8CFE091F50281E08E0FF6
:1047E0008093F5028091BB00F0E0EE52FD4F808394
:1047F0008091F70281115CCF81E08093F20284EA1C
:104800008093BC001092F80226CF85EC8093BC0008
:104810001092F80280915702803230F4E0915702F2
:10482000F0E0E95CFD4F10826091570270E0E0918A
:104830006202F091630287E392E0099510925702B9
:104840000ACF1092F60234CFE4E2F3E01382128230
:1048500048EE53E060E070E04483558366837783DD
:104860008BE091E09183808385EC90E0958784874D
:1048700084EC90E09787868780EC90E0918B808B2A
:1048800081EC90E0938B828B82EC90E0958B848B13
:1048900086EC90E0978B868B118E128E138E148E81
:1048A000A1ECB3E013961C921E92129714964D93AE
:1048B0005D936D937C9317978DE191E011969C9396
:1048C0008E93EDECF3E01382128220E830E0358322
:1048D000248380E490E097838683318720879387C1
:1048E0008287168A158614861786168681E0858B40
:1048F000848B2FEF3FEF338B228B318B208B878B79
:10490000108E128E118E8FE291E091838083148E2F
:10491000138EB68FA58F10A2178E8FEF84A385A359
:1049200086A387A380A780E89AE1A6E0B0E085ABE4
:1049300096ABA7ABB0AF80EA96E8A1E0B0E081AF5C
:1049400092AFA3AFB4AF80E586AF17AE0895CF9313
:10495000DF93CDB7DEB765970FB6F894DEBF0FBE15
:10496000CDBF789484B5826084BD84B5816084BDF8
:1049700085B5826085BD85B5816085BD80916E00FD
:10498000816080936E00109281008091810082602E
:10499000809381008091810081608093810080916B
:1049A00080008160809380008091B100846080935A
:1049B000B1008091B00081608093B00080917A0056
:1049C000846080937A0080917A00826080937A007C
:1049D00080917A00816080937A0080917A0080686B
:1049E00080937A001092C1001092FF021092FE0292
:1049F00010922103109220030E942E1485EE96E05F
:104A0000909365028093640286EE96E09093630231
:104A1000809362028091EC039091ED03892B39F130
:104A20000E9489198091D3039091D4036091D1039E
:104A30007091D203813291050CF03AC4AC0140521E
:104A4000510957FF02C04F5F5F4F55954795635718
:104A5000710977FF02C06F5F7F4F75956795F0E230
:104A6000EF2EF12C03E710E024E838E039C4209160
:104A7000D3033091D403C901079697FD079623E02D
:104A8000959587952A95E1F72091D1033091D2032E
:104A9000AC01429FC001439F900D529F900D112485
:104AA0000E94B3349093ED038093EC03892B09F0BB
:104AB000B7CF81E090E00E943B1A60ED77E080E0A4
:104AC00090E00E945F0B62E087E00E94A00862E035
:104AD00084E00E94A00862E082E00E94A00862E0F8
:104AE00088E00E94A00860E085E10E94A00862E0E2
:104AF00089E00E94A00862E08AE00E94A00860E0CD
:104B000080E10E94A00860E084E10E94A00861E0CA
:104B10008DE00E94A00861E085E00E94A00861E0AD
:104B200086E00E94A00861E083E00E94A00860E0A7
:104B300081E10E94A00860E080E00E94A00860E09F
:104B400081E00E94A00861E08FE00E94A00861E07F
:104B50008EE00E94A00861E08BE00E94A00861E066
:104B60008CE00E94A00883EE93E00E947A1D898366
:104B700082EE93E00E947A1D2981922F90938E02FB
:104B800080938D0286EE93E00E947A1D80938F02BF
:104B90006AE070E080E090E00E945F0B81E00E949C
:104BA0001D088C01F090660280E00E941D089B8B1E
:104BB0008A8B81E10E941D08000F111F000F111F39
:104BC0008F29802B4A895B89440F551F482B4093BE
:104BD000660281E00E941D08809387021B8A1A8A60
:104BE00011E08A890E94DA0681EC93E00E94F714B2
:104BF000811107C08A899B898035910511F4109332
:104C00007B022A893B892F5F3F4F3B8B2A8B2F37B3
:104C1000310539F780917B028130B1F442E350E0F5
:104C200070E060E090E080E00E94601868EE73E061
:104C300080E090E00E945F0B50E040E070E060E0B8
:104C400090E080E00E94601880E10E94280B81EED5
:104C500093E00E947A1D93E0899FA00111245B8B51
:104C60004A8B84E10E94280B9093890280938802EA
:104C70008634910530F486E490E090938902809325
:104C8000880280918802909189022A893B89215F5C
:104C90003F4F2817390748F09C01215F3F4F4A8951
:104CA0005B892417350708F00BC58E3E52E0950747
:104CB00008F00BC563E070E00E94583481EE93E089
:104CC0000E94711C809188029091890266E470E0D4
:104CD0000E945834AB0170E060E02AE084E293E087
:104CE0000E94BA196AEC71E084E293E00E94AB1969
:104CF000809188029091890266E470E00E945834A5
:104D000028EC269FC001279F900D112490938602C6
:104D100080938502E0913403F091350382E0808333
:104D2000E0913003F09131031082E0913203F09171
:104D300033038FEC808310923C03E0913803F091B1
:104D4000390386E08083E0913603F0913703808158
:104D500080618083E0913603F09137038081886021
:104D60008083E0913603F0913703808180688083EF
:104D7000E0913603F091370380818F7D80838091AD
:104D80008D0290918E020E947C1D809179029091FB
:104D90007A026AE070E00E9458346093670290E003
:104DA00080E00E943B1A6624639487E00E941D08FD
:104DB000892B09F0FEC0C0909502D0909602E09039
:104DC0009702F090980230E2C30E33E0D31EE11C4C
:104DD000F11C0E94920BC616D706E806F90608F0E9
:104DE000E8C043E04093900290E080E00E943B1ACC
:104DF0000E94920B609395027093960280939702A3
:104E00009093980260E087EE93E00E94711C1092EC
:104E10008E0210928D0210928B0210928A020E94D2
:104E2000920B609375027093760280937702909351
:104E300078021092740260E08DE00E94460860E003
:104E40008CE00E94460860E08EE00E94460860E028
:104E500082EE93E00E94711C60E083EE93E00E947A
:104E6000711C198287E00E941D08019709F03FC458
:104E70005981552309F452C450E040E070E060E0ED
:104E800082E390E00E9460180E94920B609375028A
:104E90007093760280937702909378021092950235
:104EA000109296021092970210929802F3E3CF2E7E
:104EB000D12C00E0F12CE12C198287E00E941D0822
:104EC000019709F48FC48090950290909602A0906B
:104ED0009702B090980250E2850E53E0951EA11CF7
:104EE000B11C0E94920B681579058A059B0508F490
:104EF00079C480918D0290918E02019690938E02DA
:104F000080938D020E94731C60918D0282EE93E06B
:104F10000E94711C60918E0283EE93E00E94711CCE
:104F20008BE00E94740850E040E070E060E090E0A8
:104F300080E00E9460180E94920B6093950270932B
:104F4000960280939702909398026FE070E080E061
:104F500090E00E945F0B80918D0290918E020E94E2
:104F60007C1D8091790290917A026AE070E00E9443
:104F70005834609367021092740260E08DE00E94E2
:104F8000460860E08EE00E94460860E08CE00E94E7
:104F9000460860E08FE00E94460868EE73E080E01B
:104FA00090E00E945F0B1092900290E080E00E94DF
:104FB0003B1A8AE00E941D08892B09F005C7C090A2
:104FC000A502D090A602E090A702F090A80250E2BD
:104FD000C50E53E0D51EE11CF11C0E94920BC616B3
:104FE000D706E806F90608F0EFC684E08093900241
:104FF00090E080E00E943B1A0E94920B6093A50211
:105000007093A6028093A7029093A80250E040E01C
:1050100065E070E082E390E00E94601887EE93E024
:105020000E947A1D809382028130D9F460918D02B2
:1050300070918E026150710970938E0260938D029F
:1050400082EE93E00E94711C60918E0283EE93E0E9
:105050000E94711C1092820260E087EE93E00E9431
:10506000711C80918D0290918E020E947C1D609235
:10507000810288E0898350E040E070E060E090E0E9
:1050800080E00E94601864E670E080E090E00E949A
:105090005F0B50E040E065E070E082E390E00E944A
:1050A000601864E670E080E090E00E945F0B9981F8
:1050B000915099839111DFCF0E94321E28E02983FD
:1050C00050E040E070E060E090E080E00E94601816
:1050D00064E670E080E090E00E945F0B50E040E00A
:1050E00065E070E082E390E00E94601864E670E0A2
:1050F00080E090E00E945F0B39813150398331119B
:10510000DFCF10928102B09080026B2D8CE00E9464
:1051100046086B2D8EE00E9446081B8A1A8A10E012
:1051200000E08AE00E941D08019709F0A7C584E00D
:105130000E941D08892B19F50E94920BCA84DB84FA
:10514000EC84FD8424EFC20E21E0D21EE11CF11C90
:10515000C616D706E806F90690F40E94920B6A87F5
:105160007B878C879D8781E0B11080E0B82E682F07
:105170008CE00E9446086B2D8EE00E94460882E07B
:105180000E941D080197F9F480917C0290917D02A4
:10519000A0917E02B0917F0281319742A105B105B5
:1051A00090F010927C0210927D0210927E0210927A
:1051B0007F028FE00E941D0861E0892B09F060E00A
:1051C0008FE00E94460880917C0290917D02A09120
:1051D0007E02B0917F020196A11DB11D80937C02D9
:1051E00090937D02A0937E02B0937F0282E00E94A2
:1051F0001D08892B41F50E94920BCE84DF84E8883C
:10520000F98844EFC40E41E0D41EE11CF11CC6161F
:10521000D706E806F906B8F4B11015C00E94920B43
:105220006E877F87888B998B88EC90E00E94DC08E2
:1052300064E670E080E090E00E945F0B8BE00E94EB
:1052400074080F5F1F4F82E00E941D08892B09F030
:1052500068CF0E94920BCE80DF80E884F98454EFFF
:10526000C50E51E0D51EE11CF11CC616D706E80696
:10527000F90608F056CF81E0B81253CF0E94920B86
:105280006E837F838887998788EC90E00E94DC0892
:1052900064E670E080E090E00E945F0B8BE00E948B
:1052A00074082A893B892F5F3F4F3B8B2A8B39CF6C
:1052B000AC014054510957FF02C04F5F5F4F5595F5
:1052C00047956255710977FF02C06F5F7F4F7595F3
:1052D000679510E4E12EF12C02E510E024E63AE0B7
:1052E0008DEC93E00E94E61282E08093EF038091C0
:1052F000EA039091EB03892B09F4E0C08CE38093DF
:10530000EE031092FF021092FE02109221031092FF
:1053100020030E942E1485EE96E090936502809300
:10532000640286EE96E0909363028093620280911D
:10533000F50387FD1EC061E00E94A00861E0809136
:10534000F5030E94460861E070E080E090E00E9472
:105350005F0B60E08091F5030E9446086AE070E010
:1053600080E090E00E945F0B61E08091F5030E9475
:1053700046088091EA039091EB03892B09F45FC101
:1053800020910204309103044091040450910504DB
:1053900060E074E284EF90E00E946C3420513109A7
:1053A0004109510956954795379527952093B8009F
:1053B00064E080E898E00E94DE156091D3036150BC
:1053C0008DEC93E00E94861664E08CE798E00E94E2
:1053D000DE158091EF0360E1813009F064E18DEC2E
:1053E00093E00E94861664E088E798E00E94DE154C
:1053F0008FE880930A048091D1039091D203803882
:10540000910509F035C18091D3039091D403803484
:10541000910509F042C18091EF03813009F026C166
:105420008FE980930A0492E199836AED8DEC93E011
:105430000E94861669818DEC93E00E94861661E8D1
:105440008DEC93E00E94861660910A048DEC93E047
:105450000E94861669ED8DEC93E00E94861680917D
:10546000EF0362E2813009F061EF8DEC93E00E947E
:10547000861666E082E798E00E94DE158091EA03D6
:105480009091EB03892B09F411C12091060430910E
:105490000704409108045091090460E074E284EF2D
:1054A00090E00E946C342051310941095109569510
:1054B0004795379527952093B800FBCA61E0809106
:1054C000F3030E94A00861E08091F4030E94A00809
:1054D0008091F303082E000C990BFC01EE5BF24F58
:1054E000E491F0E0EE0FFF1FE85CF24F259134915C
:1054F0003093FB032093FA03FC01EC5DF24FE4913F
:10550000E09300048091F403082E000C990BFC0139
:10551000EE5BF24FE491F0E0EE0FFF1FE85CF24F1C
:10552000A591B491B093FD03A093FC03FC01EC5D45
:10553000F24FE491E09301048C91E82BEC9380917D
:10554000E8039091E903892B09F436C05FB75983CA
:10555000F89480916102811127C0ECE4FDE0949100
:10556000EEE2FDE08491E92FF0E0EE0FFF1FE85935
:10557000F74FA591B491EC918E2321F461E08AE07C
:105580000E94460861E08AE00E94A0088CB5806114
:105590008CBD8CB580648CBD61E08DE00E94A0085C
:1055A00061E08BE00E94A008809161028F5F809390
:1055B000610289818FBFBBCE61E08091F1030E94BF
:1055C000A00861E08091F2030E94A0088091F1039D
:1055D000082E000C990BFC01EE5BF24FE491F0E019
:1055E000EE0FFF1FE85CF24F259134913093F703E3
:1055F0002093F603FC01EC5DF24FE491E093FE038F
:105600008091F203082E000C990BFC01EE5BF24F27
:10561000E491F0E0EE0FFF1FE85CF24FA591B4912A
:10562000B093F903A093F803FC01EC5DF24FE49111
:10563000E093FF038C91E095E823EC9378CE809182
:10564000E8039091E903892B31F080910B0490914C
:105650000C040E94FC0DE091FC03F091FD0390818D
:1056600080910104809589238083A2CE8FECD9CECE
:1056700080369105A9F48091D3039091D40340978B
:1056800091F48091EF03813031F480E180930A043A
:1056900022E02983CACE8FEAF9CF32E03983C5CE22
:1056A00042E04983C2CE52E05983BFCEE091FC0371
:1056B000F091FD03808190910104892B8083F9C9C9
:1056C0008E3E22E0920708F417CB2AE041E050E03A
:1056D00060E070E084E293E00E94BA196AEC71E045
:1056E00084E293E00E94AB1961E070E009CBC090C6
:1056F0009502D0909602E0909702F090980280E296
:10570000C80E83E0D81EE11CF11C0E94920B6C15A0
:105710007D058E059F0508F4ABCBAECB9091810241
:1057200099839111A9CB84E10E94280B909389025F
:105730008093880290E080E00E943B1A85E10E94FD
:10574000280B8438934034F08BE00E94740831E0D9
:10575000398388CB80916C0281110CC00E94920B1E
:10576000609368027093690280936A0290936B025F
:1057700060926C020E94920B009168021091690283
:1057800020916A0230916B02601B710B820B930BAC
:10579000693E73408105910508F464CB50E040E018
:1057A00070E060E082E390E00E94601864E670E0E0
:1057B00080E090E00E945F0B50E040E070E060E02D
:1057C00090E080E00E9460180E94920B6093680253
:1057D0007093690280936A0290936B0243CBEA88CC
:1057E000FB886BCB8090B5029090B602A090B70278
:1057F000B090B8020E94920B86169706A806B906CA
:10580000E0F450E040E070E060E02A8132E3239F62
:10581000C00111240E9460184A8146254A830E94D3
:10582000920B68517C4F8F4F9F4F6093B5027093DE
:10583000B6028093B7029093B8025DE2C51651E0BC
:10584000D50608F40FC184E00E941D08182F82E0DD
:105850000E941D08D82E84E10E94280B9093890293
:105860008093880290E080E00E943B1AC0907B0207
:1058700080E1C110B8C00E94280B2FEF33E0281B35
:10588000390BC90120918502309186028E3141E0A9
:10589000940708F4A5C06FE870E00E945834629F36
:1058A000C001639F900D729F900D11249B8B8A8B7A
:1058B0001111D6C08090990290909A02A0909B02FC
:1058C000B0909C0230E2830E33E0931EA11CB11C09
:1058D0000E94920B86169706A806B906C0F411E03E
:1058E00080918A02811110E010938A020E94920B2B
:1058F0006093990270939A0280939B0290939C020A
:10590000612F8EE00E94460811E041E04983D110EA
:1059100027C080909D0290909E02A0909F02B09020
:10592000A00250E2850E53E0951EA11CB11C0E94FE
:10593000920B86169706A806B90690F400918B0282
:1059400081E0011180E080938B020E94920B6093B2
:105950009D0270939E0280939F029093A00211E09B
:105960008AE00E941D08892B61F58090B902909011
:10597000BA02A090BB02B090BC0280E2880E83E025
:10598000981EA11CB11C0E94920B86169706A806B1
:10599000B906B8F491E0C91214C00E94920B60934A
:1059A000B9027093BA028093BB029093BC026091DB
:1059B000740260956170609374028DE00E944608E5
:1059C00011E02A893B892901D12CC12CE216F3066A
:1059D00009F44BC04A885B88D12CC12C11E045C02A
:1059E0003B8B2A8B65CF0E94280B2FEF33E0281BBF
:1059F000390BC9018090850290908602B12CA12CB0
:105A00002234310520F161E270E00E94583490E0C8
:105A100080E00E9402336A8B7B8B8C8B9D8BC5014F
:105A2000B4010E9402332DE138E347E65EE30E94B1
:105A300090339B01AC016A897B898C899D890E9486
:105A400090330E94CC32262F2A8B7B8B31CFC5011D
:105A5000B4010E9402332DE138E347E65EE3EFCF65
:105A600010E055CFFB8AEA8A10E03FEFC31AD30A51
:105A7000113059F480918D0290918E02019690938D
:105A80008E0280938D020E94731C809188029091F7
:105A900089028538934008F0E9C090908B0201306C
:105AA00039F451E0951204C08981813049F119829D
:105AB00010918A02612F8CE00E944608013009F0A3
:105AC0008BC091108BC080918702811114C0B201EC
:105AD00090E080E00E9402330E9403340E94CC32A6
